{
  "contractName": "TodoList",
  "abi": [
    {
      "constant": true,
      "inputs": [],
      "name": "taskCount",
      "outputs": [
        {
          "internalType": "uint256",
          "name": "",
          "type": "uint256"
        }
      ],
      "payable": false,
      "stateMutability": "view",
      "type": "function"
    }
  ],
  "bytecode": "0x608060405260008055348015601357600080fd5b506080806100226000396000f3fe6080604052348015600f57600080fd5b506004361060285760003560e01c8063b6cb58a514602d575b600080fd5b60336045565b60408051918252519081900360200190f35b6000548156fea265627a7a72315820b7e179ec14c9ade6a394217f05833f90057a4f8f73c6f288232369802e692daf64736f6c63430005100032",
  "source": "pragma solidity ^0.5.16;\n\ncontract TodoList {\n  // keep track of the number of todo list\n  // declear a state variable, they are always written to the blockchain\n  // make public to read the var from the contract\n  uint public taskCount = 0;\n}",
  "sourcePath": "/home/samuel/Blockchain/eth-todo-list/contracts/TodoList.sol",
  "compiler": {
    "name": "solc",
    "version": "0.5.16+commit.9c3226ce.Emscripten.clang"
  },
  "schemaVersion": "3.4.1",
  "updatedAt": "2021-07-17T00:28:48.410Z",
  "networkType": "ethereum",
  "devdoc": {
    "methods": {}
  },
  "userdoc": {
    "methods": {}
  }
}